:020000020000FC
:1000000088C018951895189518951895F3C01895E7
:100010001895189518951895189518951895189578
:1000200018951895189538E0221F10F0BD9A01C058
:10003000BD98BF983DD0BF9A3BD03A95A9F7BD98DF
:1000400037D0BF9835D08894B5990894BF9A30D0EE
:10005000089521E0BF9ABD982BD0BF9829D08894ED
:10006000B5990894221FB0F7BF9A22D016F0BD9818
:1000700001C0BD9A1DD0BF981BD00895BD98BF98F0
:1000800017D0B59BFBCFB79BF9CFBD9A11D0BF9AC4
:100090000FD00895BD9ABF9A0BD0BF9809D0BD98D4
:1000A00007D08894B5990895B7990895089408954C
:1000B0000000000000000000000000000000000040
:1000C0000000000000000000000000000895D6DFDE
:1000D0002CE3A9DFE0F320E0A6DFC8F324E1A3DFEF
:1000E000B0F3D8DFCBDF2CE39EDFE0F321E09BDF32
:1000F000C8F320E298DFB0F3CDDFC0DF2CE393DF5D
:10010000E0F322E090DFC8F320E08DDFB0F3C2DF40
:1001100008950FED0DBF02D07894FFCF07D0D7DF41
:100120000AD0889A899A44275527089502E009BF82
:1001300005E003BF08958D9A8C9A949A08950FEF65
:1001400008BB000006B3102F089598DF2CE36BDF87
:10015000E0F323E068DFC8F391DF2DE364DFA8F369
:1001600078DF422F97DF8ADF2CE35DDFE0F324E0C6
:100170005ADFC8F383DF2DE356DFA8F36ADF522F7F
:1001800089DF7CDF2CE34FDFE0F325E04CDFC8F3B1
:1001900075DF2DE348DFA8F35CDF022F7BDF6EDF26
:1001A0002CE341DFE0F326E03EDFC8F367DF2DE319
:1001B0003ADFA8F34EDF022F6DDF60DF2CE333DF81
:1001C000E0F327E030DFC8F359DF2DE32CDFA8F39D
:1001D00040DF022F5FDF52DF2CE325DFE0F328E072
:1001E00022DFC8F34BDF2DE31EDFA8F332DF022F3F
:1001F00051DF0895AADF403818F04F7741955195A7
:1002000090989598403021F4503510F4909A959A32
:0202100018953F
:00000001FF
